{
  "_format": "hh-sol-artifact-1",
  "contractName": "FunctionsConsumer",
  "sourceName": "contracts/FunctionsConsumer.sol",
  "abi": [
    {
      "inputs": [
        {
          "internalType": "address",
          "name": "router",
          "type": "address"
        },
        {
          "internalType": "bytes32",
          "name": "_donId",
          "type": "bytes32"
        }
      ],
      "stateMutability": "nonpayable",
      "type": "constructor"
    },
    {
      "inputs": [],
      "name": "EmptyArgs",
      "type": "error"
    },
    {
      "inputs": [],
      "name": "EmptySource",
      "type": "error"
    },
    {
      "inputs": [],
      "name": "NoInlineSecrets",
      "type": "error"
    },
    {
      "inputs": [],
      "name": "OnlyRouterCanFulfill",
      "type": "error"
    },
    {
      "anonymous": false,
      "inputs": [
        {
          "indexed": true,
          "internalType": "address",
          "name": "from",
          "type": "address"
        },
        {
          "indexed": true,
          "internalType": "address",
          "name": "to",
          "type": "address"
        }
      ],
      "name": "OwnershipTransferRequested",
      "type": "event"
    },
    {
      "anonymous": false,
      "inputs": [
        {
          "indexed": true,
          "internalType": "address",
          "name": "from",
          "type": "address"
        },
        {
          "indexed": true,
          "internalType": "address",
          "name": "to",
          "type": "address"
        }
      ],
      "name": "OwnershipTransferred",
      "type": "event"
    },
    {
      "anonymous": false,
      "inputs": [
        {
          "indexed": true,
          "internalType": "bytes32",
          "name": "id",
          "type": "bytes32"
        }
      ],
      "name": "RequestFulfilled",
      "type": "event"
    },
    {
      "anonymous": false,
      "inputs": [
        {
          "indexed": true,
          "internalType": "bytes32",
          "name": "id",
          "type": "bytes32"
        }
      ],
      "name": "RequestSent",
      "type": "event"
    },
    {
      "inputs": [],
      "name": "acceptOwnership",
      "outputs": [],
      "stateMutability": "nonpayable",
      "type": "function"
    },
    {
      "inputs": [],
      "name": "donId",
      "outputs": [
        {
          "internalType": "bytes32",
          "name": "",
          "type": "bytes32"
        }
      ],
      "stateMutability": "view",
      "type": "function"
    },
    {
      "inputs": [
        {
          "internalType": "bytes32",
          "name": "requestId",
          "type": "bytes32"
        },
        {
          "internalType": "bytes",
          "name": "response",
          "type": "bytes"
        },
        {
          "internalType": "bytes",
          "name": "err",
          "type": "bytes"
        }
      ],
      "name": "handleOracleFulfillment",
      "outputs": [],
      "stateMutability": "nonpayable",
      "type": "function"
    },
    {
      "inputs": [],
      "name": "owner",
      "outputs": [
        {
          "internalType": "address",
          "name": "",
          "type": "address"
        }
      ],
      "stateMutability": "view",
      "type": "function"
    },
    {
      "inputs": [],
      "name": "s_lastError",
      "outputs": [
        {
          "internalType": "bytes",
          "name": "",
          "type": "bytes"
        }
      ],
      "stateMutability": "view",
      "type": "function"
    },
    {
      "inputs": [],
      "name": "s_lastRequestId",
      "outputs": [
        {
          "internalType": "bytes32",
          "name": "",
          "type": "bytes32"
        }
      ],
      "stateMutability": "view",
      "type": "function"
    },
    {
      "inputs": [],
      "name": "s_lastResponse",
      "outputs": [
        {
          "internalType": "bytes",
          "name": "",
          "type": "bytes"
        }
      ],
      "stateMutability": "view",
      "type": "function"
    },
    {
      "inputs": [
        {
          "internalType": "string",
          "name": "source",
          "type": "string"
        },
        {
          "internalType": "enum FunctionsRequest.Location",
          "name": "secretsLocation",
          "type": "uint8"
        },
        {
          "internalType": "bytes",
          "name": "encryptedSecretsReference",
          "type": "bytes"
        },
        {
          "internalType": "string[]",
          "name": "args",
          "type": "string[]"
        },
        {
          "internalType": "bytes[]",
          "name": "bytesArgs",
          "type": "bytes[]"
        },
        {
          "internalType": "uint64",
          "name": "subscriptionId",
          "type": "uint64"
        },
        {
          "internalType": "uint32",
          "name": "callbackGasLimit",
          "type": "uint32"
        }
      ],
      "name": "sendRequest",
      "outputs": [],
      "stateMutability": "nonpayable",
      "type": "function"
    },
    {
      "inputs": [
        {
          "internalType": "bytes32",
          "name": "newDonId",
          "type": "bytes32"
        }
      ],
      "name": "setDonId",
      "outputs": [],
      "stateMutability": "nonpayable",
      "type": "function"
    },
    {
      "inputs": [
        {
          "internalType": "address",
          "name": "to",
          "type": "address"
        }
      ],
      "name": "transferOwnership",
      "outputs": [],
      "stateMutability": "nonpayable",
      "type": "function"
    }
  ],
  "bytecode": "0x60a06040523480156200001157600080fd5b5060405162001a4a38038062001a4a833981016040819052620000349162000183565b6001600160a01b0382166080523380600081620000985760405162461bcd60e51b815260206004820152601860248201527f43616e6e6f7420736574206f776e657220746f207a65726f000000000000000060448201526064015b60405180910390fd5b600080546001600160a01b0319166001600160a01b0384811691909117909155811615620000cb57620000cb81620000d8565b50505060025550620001bf565b336001600160a01b03821603620001325760405162461bcd60e51b815260206004820152601760248201527f43616e6e6f74207472616e7366657220746f2073656c6600000000000000000060448201526064016200008f565b600180546001600160a01b0319166001600160a01b0383811691821790925560008054604051929316917fed8889f560326eb138920d842192f0eb3dd22b4f139c87a2c57538e05bae12789190a350565b600080604083850312156200019757600080fd5b82516001600160a01b0381168114620001af57600080fd5b6020939093015192949293505050565b608051611868620001e2600039600081816101850152610a0a01526118686000f3fe608060405234801561001057600080fd5b50600436106100be5760003560e01c806379ba5097116100765780638dbe7b9d1161005b5780638dbe7b9d14610147578063b1e217491461015e578063f2fde38b1461016757600080fd5b806379ba5097146101245780638da5cb5b1461012c57600080fd5b80633944ea3a116100a75780633944ea3a146100eb5780634b0795a81461010957806378ca5de71461011157600080fd5b80630ca76175146100c3578063231c1619146100d8575b600080fd5b6100d66100d13660046110f7565b61017a565b005b6100d66100e6366004611232565b6101ec565b6100f3610347565b604051610100919061136f565b60405180910390f35b6100f36103d5565b6100d661011f366004611382565b6103e2565b6100d66103ef565b6000546040516001600160a01b039091168152602001610100565b61015060025481565b604051908152602001610100565b61015060035481565b6100d661017536600461139b565b6104b2565b336001600160a01b037f000000000000000000000000000000000000000000000000000000000000000016146101dc576040517fc6829f8300000000000000000000000000000000000000000000000000000000815260040160405180910390fd5b6101e78383836104c6565b505050565b6101f46104e5565b61023d6040805161010081019091528060008152602001600081526020016000815260200160608152602001606081526020016060815260200160608152602001606081525090565b6102846000808e8e8080601f016020809104026020016040519081016040528093929190818152602001838380828437600092019190915250879594939250506105419050565b602081018a600281111561029a5761029a6113c4565b908160028111156102ad576102ad6113c4565b8152505088888080601f01602080910402602001604051908101604052809392919081815260200183838082843760009201919091525050505060808201528515610306576103066102ff87896113fe565b82906105d8565b831561032057610320610319858761148b565b8290610602565b61033661032c8261062c565b8484600254610a05565b600355505050505050505050505050565b60048054610354906114f3565b80601f0160208091040260200160405190810160405280929190818152602001828054610380906114f3565b80156103cd5780601f106103a2576101008083540402835291602001916103cd565b820191906000526020600020905b8154815290600101906020018083116103b057829003601f168201915b505050505081565b60058054610354906114f3565b6103ea6104e5565b600255565b6001546001600160a01b0316331461044e5760405162461bcd60e51b815260206004820152601660248201527f4d7573742062652070726f706f736564206f776e65720000000000000000000060448201526064015b60405180910390fd5b600080543373ffffffffffffffffffffffffffffffffffffffff19808316821784556001805490911690556040516001600160a01b0390921692909183917f8be0079c531659141344cd1fd0a4f28419497f9722a3daafe3b4186f6b6457e091a350565b6104ba6104e5565b6104c381610ad7565b50565b60046104d2838261157b565b5060056104df828261157b565b50505050565b6000546001600160a01b0316331461053f5760405162461bcd60e51b815260206004820152601660248201527f4f6e6c792063616c6c61626c65206279206f776e6572000000000000000000006044820152606401610445565b565b805160000361057c576040517f22ce3edd00000000000000000000000000000000000000000000000000000000815260040160405180910390fd5b8383600281111561058f5761058f6113c4565b908160028111156105a2576105a26113c4565b905250604084018280156105b8576105b86113c4565b908180156105c8576105c86113c4565b9052506060909301929092525050565b80516000036105fa5760405163fe936cb760e01b815260040160405180910390fd5b60c090910152565b80516000036106245760405163fe936cb760e01b815260040160405180910390fd5b60e090910152565b6060600061063b610100610b8d565b90506106856040518060400160405280600c81526020017f636f64654c6f636174696f6e000000000000000000000000000000000000000081525082610bae90919063ffffffff16565b82516106a390600281111561069c5761069c6113c4565b8290610bc7565b60408051808201909152600881527f6c616e677561676500000000000000000000000000000000000000000000000060208201526106e2908290610bae565b60408301516106f990801561069c5761069c6113c4565b60408051808201909152600681527f736f7572636500000000000000000000000000000000000000000000000000006020820152610738908290610bae565b6060830151610748908290610bae565b60a083015151156107a25760408051808201909152601081527f726571756573745369676e6174757265000000000000000000000000000000006020820152610792908290610bae565b60a08301516107a2908290610c04565b60c0830151511561084f5760408051808201909152600481527f617267730000000000000000000000000000000000000000000000000000000060208201526107ec908290610bae565b6107f581610c11565b60005b8360c0015151811015610845576108358460c00151828151811061081e5761081e61163b565b602002602001015183610bae90919063ffffffff16565b61083e81611667565b90506107f8565b5061084f81610c35565b6080830151511561095057600083602001516002811115610872576108726113c4565b036108a9576040517fa80d31f700000000000000000000000000000000000000000000000000000000815260040160405180910390fd5b60408051808201909152600f81527f736563726574734c6f636174696f6e000000000000000000000000000000000060208201526108e8908290610bae565b6109018360200151600281111561069c5761069c6113c4565b60408051808201909152600781527f73656372657473000000000000000000000000000000000000000000000000006020820152610940908290610bae565b6080830151610950908290610c04565b60e083015151156109fd5760408051808201909152600981527f6279746573417267730000000000000000000000000000000000000000000000602082015261099a908290610bae565b6109a381610c11565b60005b8360e00151518110156109f3576109e38460e0015182815181106109cc576109cc61163b565b602002602001015183610c0490919063ffffffff16565b6109ec81611667565b90506109a6565b506109fd81610c35565b515192915050565b6000807f00000000000000000000000000000000000000000000000000000000000000006001600160a01b031663461d27628688600188886040518663ffffffff1660e01b8152600401610a5d959493929190611680565b6020604051808303816000875af1158015610a7c573d6000803e3d6000fd5b505050506040513d601f19601f82011682018060405250810190610aa091906116ca565b60405190915081907f1131472297a800fee664d1d89cfa8f7676ff07189ecc53f80bbb5f4969099db890600090a295945050505050565b336001600160a01b03821603610b2f5760405162461bcd60e51b815260206004820152601760248201527f43616e6e6f74207472616e7366657220746f2073656c660000000000000000006044820152606401610445565b6001805473ffffffffffffffffffffffffffffffffffffffff19166001600160a01b0383811691821790925560008054604051929316917fed8889f560326eb138920d842192f0eb3dd22b4f139c87a2c57538e05bae12789190a350565b610b95611003565b8051610ba19083610c53565b5060006020820152919050565b610bbb8260038351610ccd565b81516101e79082610dee565b8151610bd49060c2610e16565b50610c008282604051602001610bec91815260200190565b604051602081830303815290604052610c04565b5050565b610bbb8260028351610ccd565b610c1c816004610e7f565b600181602001818151610c2f91906116e3565b90525050565b610c40816007610e7f565b600181602001818151610c2f91906116f6565b604080518082019091526060815260006020820152610c73602083611709565b15610c9b57610c83602083611709565b610c8e9060206116f6565b610c9890836116e3565b91505b602080840183905260405180855260008152908184010181811015610cbf57600080fd5b604052508290505b92915050565b60178167ffffffffffffffff1611610cf45782516104df9060e0600585901b168317610e16565b60ff8167ffffffffffffffff1611610d36578251610d1d906018611fe0600586901b1617610e16565b5082516104df9067ffffffffffffffff83166001610e96565b61ffff8167ffffffffffffffff1611610d79578251610d60906019611fe0600586901b1617610e16565b5082516104df9067ffffffffffffffff83166002610e96565b63ffffffff8167ffffffffffffffff1611610dbe578251610da590601a611fe0600586901b1617610e16565b5082516104df9067ffffffffffffffff83166004610e96565b8251610dd590601b611fe0600586901b1617610e16565b5082516104df9067ffffffffffffffff83166008610e96565b604080518082019091526060815260006020820152610e0f83838451610f1b565b9392505050565b6040805180820190915260608152600060208201528251516000610e3b8260016116e3565b905084602001518210610e5c57610e5c85610e5783600261172b565b610fec565b8451602083820101858153508051821115610e75578181525b5093949350505050565b81516101e790601f611fe0600585901b1617610e16565b6040805180820190915260608152600060208201528351516000610eba82856116e3565b90508560200151811115610ed757610ed786610e5783600261172b565b60006001610ee786610100611826565b610ef191906116f6565b90508651828101878319825116178152508051831115610f0f578281525b50959695505050505050565b6040805180820190915260608152600060208201528251821115610f3e57600080fd5b8351516000610f4d84836116e3565b90508560200151811115610f6a57610f6a86610e5783600261172b565b855180518382016020019160009180851115610f84578482525b505050602086015b60208610610fc45780518252610fa36020836116e3565b9150610fb06020826116e3565b9050610fbd6020876116f6565b9550610f8c565b51815160001960208890036101000a0190811690199190911617905250849150509392505050565b8151610ff88383610c53565b506104df8382610dee565b604051806040016040528061102b604051806040016040528060608152602001600081525090565b8152602001600081525090565b634e487b7160e01b600052604160045260246000fd5b604051601f8201601f1916810167ffffffffffffffff8111828210171561107757611077611038565b604052919050565b600067ffffffffffffffff83111561109957611099611038565b6110ac601f8401601f191660200161104e565b90508281528383830111156110c057600080fd5b828260208301376000602084830101529392505050565b600082601f8301126110e857600080fd5b610e0f8383356020850161107f565b60008060006060848603121561110c57600080fd5b83359250602084013567ffffffffffffffff8082111561112b57600080fd5b611137878388016110d7565b9350604086013591508082111561114d57600080fd5b5061115a868287016110d7565b9150509250925092565b60008083601f84011261117657600080fd5b50813567ffffffffffffffff81111561118e57600080fd5b6020830191508360208285010111156111a657600080fd5b9250929050565b8035600381106111bc57600080fd5b919050565b60008083601f8401126111d357600080fd5b50813567ffffffffffffffff8111156111eb57600080fd5b6020830191508360208260051b85010111156111a657600080fd5b803567ffffffffffffffff811681146111bc57600080fd5b803563ffffffff811681146111bc57600080fd5b600080600080600080600080600080600060e08c8e03121561125357600080fd5b67ffffffffffffffff808d35111561126a57600080fd5b6112778e8e358f01611164565b909c509a5061128860208e016111ad565b99508060408e0135111561129b57600080fd5b6112ab8e60408f01358f01611164565b909950975060608d01358110156112c157600080fd5b6112d18e60608f01358f016111c1565b909750955060808d01358110156112e757600080fd5b506112f88d60808e01358e016111c1565b909450925061130960a08d01611206565b915061131760c08d0161121e565b90509295989b509295989b9093969950565b6000815180845260005b8181101561134f57602081850181015186830182015201611333565b506000602082860101526020601f19601f83011685010191505092915050565b602081526000610e0f6020830184611329565b60006020828403121561139457600080fd5b5035919050565b6000602082840312156113ad57600080fd5b81356001600160a01b0381168114610e0f57600080fd5b634e487b7160e01b600052602160045260246000fd5b600067ffffffffffffffff8211156113f4576113f4611038565b5060051b60200190565b600061141161140c846113da565b61104e565b80848252602080830192508560051b85013681111561142f57600080fd5b855b8181101561147f57803567ffffffffffffffff8111156114515760008081fd5b870136601f8201126114635760008081fd5b61147136823586840161107f565b865250938201938201611431565b50919695505050505050565b600061149961140c846113da565b80848252602080830192508560051b8501368111156114b757600080fd5b855b8181101561147f57803567ffffffffffffffff8111156114d95760008081fd5b6114e536828a016110d7565b8652509382019382016114b9565b600181811c9082168061150757607f821691505b60208210810361152757634e487b7160e01b600052602260045260246000fd5b50919050565b601f8211156101e757600081815260208120601f850160051c810160208610156115545750805b601f850160051c820191505b8181101561157357828155600101611560565b505050505050565b815167ffffffffffffffff81111561159557611595611038565b6115a9816115a384546114f3565b8461152d565b602080601f8311600181146115de57600084156115c65750858301515b600019600386901b1c1916600185901b178555611573565b600085815260208120601f198616915b8281101561160d578886015182559484019460019091019084016115ee565b508582101561162b5787850151600019600388901b60f8161c191681555b5050505050600190811b01905550565b634e487b7160e01b600052603260045260246000fd5b634e487b7160e01b600052601160045260246000fd5b60006001820161167957611679611651565b5060010190565b67ffffffffffffffff8616815260a0602082015260006116a360a0830187611329565b61ffff9590951660408301525063ffffffff92909216606083015260809091015292915050565b6000602082840312156116dc57600080fd5b5051919050565b80820180821115610cc757610cc7611651565b81810381811115610cc757610cc7611651565b60008261172657634e487b7160e01b600052601260045260246000fd5b500690565b8082028115828204841417610cc757610cc7611651565b600181815b8085111561177d57816000190482111561176357611763611651565b8085161561177057918102915b93841c9390800290611747565b509250929050565b60008261179457506001610cc7565b816117a157506000610cc7565b81600181146117b757600281146117c1576117dd565b6001915050610cc7565b60ff8411156117d2576117d2611651565b50506001821b610cc7565b5060208310610133831016604e8410600b8410161715611800575081810a610cc7565b61180a8383611742565b806000190482111561181e5761181e611651565b029392505050565b6000610e0f838361178556fea2646970667358221220e668e8150d692a7663aaa27f2025ed76a6d772a51a9754322d8dc28e9e800b4e64736f6c63430008130033",
  "linkReferences": {},
  "deployedLinkReferences": {}
}